:100000000C9434000C9451000C9451000C94240274
:100010000C9451000C9451000C9451000C9451001C
:100020000C9451000C9451000C9451000C9451000C
:100030000C9451000C9451000C9451000C945100FC
:100040000C9451000C9451000C9451000C945100EC
:100050000C9451000C9451000C9451000C945100DC
:100060000C9451000C94510011241FBECFEFD8E026
:10007000DEBFCDBF11E0A0E0B1E0ECE9FDE002C0E1
:1000800005900D92AC35B107D9F721E0ACE5B1E0B0
:1000900001C01D92AF36B207E1F70E9474020C94C2
:1000A000CC060C9400004198611111C040989BB19E
:1000B0009F7040E1849F90011124892F822B8BB97E
:1000C0005A9A82E08A95F1F700C05A980895409AAA
:1000D000EECF419A9AB19F709AB981110FC04098A2
:1000E0005A9A82E08A95F1F700C089B15A989AB17C
:1000F000906F9AB9419882958F700895409AF0CF89
:10010000CF93DF93C82FD62F82958F700E94530014
:100110006D2F8C2F8F700E945300DF91CF91089527
:10012000CF93DF93C82F0E946900D82FD295D07F3C
:100130008C2F0E9469008D2BDF91CF91089580E074
:100140000E9490008823DCF30895389A399A529AD5
:100150008AB1806F8AB98FEF97ED0197F1F700C0F0
:10016000000060E083E00E9453008AE09BE3019777
:10017000F1F760E083E00E94530080E791E001978F
:10018000F1F700C060E083E00E94530096EB9A957F
:10019000F1F760E082E00E94530080E00E949F003F
:1001A00060E088E20E94800080E00E949F0060E0A2
:1001B00088E00E94800080E00E949F0008950E94D5
:1001C000A50060E081E00E94800081E00E949F0025
:1001D00060E086E00E94800080E00E949F0060E076
:1001E0008EE00E94800080E00E949F000895CF93DF
:1001F000C82F80915C01811111C0CB3139F481E0AD
:1002000080935C0190E080E0CF91089580E00E94AF
:100210009F0061E08C2F0E948000F4CF80E00E945C
:100220009F0060E08C2F0E948000C43018F0109274
:100230005C01E8CF81E00E949F00F9CF8BE08093C2
:10024000C40088E18093C10086E08093C2000895D5
:10025000E0ECF0E0908195FFFDCF8093C60008951B
:10026000CF93DF93EC018881882331F021960E949F
:10027000280189918111FBCFDF91CF9108950F93D0
:100280001F93CF93DF93CDB7DEB764970FB6F89483
:10029000DEBF0FBECDBFEDE5F1E083858F93828594
:1002A0008F9381858F9380858F9387818F938681AC
:1002B0008F9385818F9384818F9383818F938281A4
:1002C0008F9381818F9380818F9382E191E09F93BF
:1002D0008F931F9284E18F938E010F5F1F4F1F93A7
:1002E0000F930E94E703C8010E9430010FB6F894F3
:1002F000DEBF0FBECDBF64960FB6F894DEBF0FBE53
:10030000CDBFDF91CF911F910F91089560E081E003
:100310000E94800081E00E949F0008959C0121506E
:100320003109892B41F086E69EE00197F1F7000044
:1003300021503109C0F7089587B1837E87B98CE1D8
:1003400080937E0080E480937C0087E880937A002D
:100350000895ECE7F0E09081907F8F70982B908368
:10036000EAE7F0E0808180648083808186FDFDCFB4
:10037000809178009091790008958823B9F1809157
:10038000100190911101009739F481E090E0909371
:1003900011018093100108958A30910598F4019617
:1003A000909311018093100180911001909111019F
:1003B000893E934080F188EE93E090931101809301
:1003C000100108958436910530F40A969093110136
:1003D00080931001E9CF883E23E0920728F78C59DB
:1003E0009F4F9093110180931001DECF80911001F7
:1003F000909111019C01225031092930310560F49E
:1004000001979093110180931001809110019091B8
:1004100011010197A1F008952336310530F40A97B0
:100420009093110180931001F0CF273E334068F77D
:10043000845691099093110180931001E6CF109298
:10044000110110921001E7CF1F920F920FB60F9279
:1004500011242F933F934F935F936F937F938F93C9
:100460009F93AF93BF93EF93FF9319990BC02FEF17
:100470008FE794E0215080409040E1F700C00000F9
:10048000199B1EC01A990BC02FEF8FE794E02150E3
:1004900080409040E1F700C000001A9B1BC0FF9114
:1004A000EF91BF91AF919F918F917F916F915F91EC
:1004B0004F913F912F910F900FBE0F901F90189565
:1004C00081E00E94BD018AE090E090930F0180934B
:1004D0000E01D8CF80E00E94BD018AE090E09093A9
:1004E0000F0180930E01DBCF0E94DF0080E091E0DE
:1004F00090936C0180936B010E949C010E941E01ED
:1005000084B1897F84B985B1866085B9E8E6F0E079
:10051000808181608083EBE6F0E08081866080836B
:1005200078940F2EEE24EA94F3E0FF2EF02D0F2E98
:10053000F2E34F2EF02D0F2EF8EE6F2EF3E07F2E0C
:10054000F02D0DE511E00F2EFCE2AF2EF1E0BF2EF5
:10055000F02D0F2EF0E0CF2EF1E0DF2EF02D0F2E3C
:10056000FDE48F2EF1E09F2EF02D7CC00E948601CD
:10057000F80183858F9382858F9381858F93808502
:100580008F9387818F9386818F9385818F938481C9
:100590008F9383818F9382818F9381818F938081C9
:1005A0008F93BF92AF92DF92CF920E94A5039601E4
:1005B00048E050E061E070E084E491E00E94B7031D
:1005C00088EC90E00E948E018DB79EB740960FB6E2
:1005D000F8949EBF0FBE8DBF45C010920F011092C0
:1005E0000E010E948601F80183858F9382858F9387
:1005F00081858F9380858F9387818F9386818F9359
:1006000085818F9384818F9383818F9382818F9350
:1006100081818F9380818F93BF92AF92DF92CF922F
:100620000E94A503809111018F93809110018F93F7
:100630009F928F92DF92CF920E94A5038DB79EB7B3
:1006400046960FB6F8949EBF0FBE8DBF0E943F0125
:100650006091100170911101C3010E948203CB01CE
:100660000E948E018091100190911101CDE5D1E0A1
:100670006894552451F8892B09F478CF852D0E9470
:10068000A9019C01880F991F880F991F820F931F42
:10069000B7010E94820379836883429EC001439E12
:1006A000900D1124B7010E948203AB019B01ADECB8
:1006B000BCEC0E9496039C013695279536952795AC
:1006C00036952795C901880F991F880F991F820FAA
:1006D000931F880F991F481B590B5B834A835394C0
:1006E000249695E05912CACF80910E0190910F0186
:1006F00001968A30910508F070CF90930F01809396
:100700000E01A4CFAA1BBB1B51E107C0AA1FBB1F30
:10071000A617B70710F0A61BB70B881F991F5A958D
:10072000A9F780959095BC01CD010895A29FB001D5
:10073000B39FC001A39F700D811D1124911DB29F15
:10074000700D811D1124911D0895B0E0A0E0EBEA29
:10075000F3E00C94A506AE01475F5F4F6F8178858B
:100760008D819E810E941704E2E00C94C106B0E0E6
:10077000A0E0EDEBF3E00C949B065B014A017901EC
:10078000D90113962C91D0E0C0E021FF1AC0C81502
:10079000D905B9F08C016C01CA0CDB1C0CC00F5FD1
:1007A0001F4FD7011896ED91FC91B701DC018C9198
:1007B0000995892B31F4C8010C151D0581F7219687
:1007C000E6CFCE01CDB7DEB7ECE00C94B706AEE0D5
:1007D000B0E0EDEEF3E00C94A3060D891E898F893D
:1007E000988D26E02C831A83098397FF02C080E04E
:1007F00090E801979E838D83AE01455E5F4F698DC2
:100800007A8DCE0101960E9417044D815E8157FDBD
:100810000AC02F813885421753070CF49A01020F42
:10082000131FF80110822E96E4E00C94BF06ABE093
:10083000B0E0EDE1F4E00C9495067C013B018A0107
:10084000FC0117821682838181FFC8C1CE01019607
:100850005C01F7019381F30193FD859193FF8191F1
:100860003F01882309F453C1853239F493FD859102
:1008700093FF81913F01853229F4B70190E00E94F6
:100880000706E7CF912C212C312CFFE1F31538F02E
:100890008B3211F190F4803209F1833229F137FC67
:1008A0003CC020ED280F2A3050F536FE20C08AE0EB
:1008B000989E200D1124922E06C08D3291F0803327
:1008C00071F7689430F8F30193FD859193FF81915E
:1008D0003F018111DACF21C0689431F8689432F871
:1008E000F2CF689433F8EFCF689434F8ECCFEAE0B5
:1008F0002E9E200D1124222E689435F8E4CF8E32DE
:1009000029F436FC04C1689436F8DDCF8C3619F42E
:10091000689437F8D8CF8836B1F2982F9F7D9554D8
:100920009330E0F08336A1F18337C1F1833509F0CC
:1009300063C02801F2E04F0E511CF801C080D18045
:10094000692D70E036FC02C06FEF7FEFC6010E9498
:10095000F1054C01689437F882010AC00C5F1F4F03
:10096000FFE3F98388248394912C6501E89437F898
:1009700033FE2DC0522C8114910471F5552009F4D9
:1009800068CFB70180E290E00E9407065A94F6CF44
:10099000F801808189830E5F1F4FE4CF2801F2E0C8
:1009A0004F0E511CF801C080D180692D70E036FCDB
:1009B00002C06FEF7FEFC6010E94FC054C0182016F
:1009C000D5CFB70180E290E00E9407062A94281450
:1009D000190409F0B0F7CECFF60137FC859137FE48
:1009E00081916F01B70190E00E94070651105A945F
:1009F000F1E08F1A9108BFCF843619F0893609F0DB
:100A000077C0F80137FE6BC060817181828193816C
:100A10000C5F1F4FF32DFF763F2E97FF09C0909577
:100A20008095709561957F4F8F4F9F4F689437F8F1
:100A30002AE030E0A5010E943706C82ECA188C2C87
:100A4000432C36FE0CC0E89440F8C91440F434FE40
:100A500005C032FC03C0F32DFE7E4F2E892C44FED0
:100A600095C0FE01EC0DF11D8081803309F087C037
:100A7000242D297E422E842D8870582E43FC95C04B
:100A800040FE8FC09C2C821418F42C0C922C9818C9
:100A900044FE91C0B70180E390E00E94070642FE49
:100AA00009C088E790E041FE02C088E590E0B70108
:100AB0000E940706C91408F48AC0CA94D12C9FEF7B
:100AC000C91AD90ACA0CDB1CF60182916F01B70161
:100AD00090E00E940706AC14BD04B1F74FCF6081CF
:100AE0007181072E000C880B990B0E5F1F4F92CF60
:100AF000D32CE894D4F82AE030E0853739F1232D5F
:100B0000297FD22E8F3601F148F48835A9F0F701FC
:100B1000868197812B96E2E10C94B106803749F0EB
:100B20008837A9F7D4FE02C06894D2F820E130E0FB
:100B30000DC06894D4F8F6CF34FE03C0822F8660CF
:100B4000D82E20E132E002C028E030E0F801D7FEE4
:100B50000FC060817181828193810C5F1F4FA5015D
:100B60000E943706C82ECA183D2CE89437F867CF84
:100B70006081718190E080E00E5F1F4FF0CF42FCFA
:100B800002C0839478CF8394839475CF842D867824
:100B900009F471CFF6CFB70180E290E00E9407061A
:100BA00083948214C0F3512C73CF522C58188214A2
:100BB00008F46ECFF8CF842D867809F47BCF8BE2D2
:100BC00041FE80E247FC8DE2B70190E071CFB701B2
:100BD00080E390E00E9407069A946CCF8FEF9FEF1E
:100BE00099CFFC010590615070400110D8F78095B5
:100BF00090958E0F9F1F0895FC01615070400190E9
:100C00000110D8F7809590958E0F9F1F08950F9330
:100C10001F93CF93DF93182F092FEB018B8181FD59
:100C200009C01FEF0FEF812F902FDF91CF911F9100
:100C30000F91089582FF14C02E813F818C819D8188
:100C4000281739073CF4E881F981CF01019699838F
:100C5000888310838E819F8101969F838E83E3CF4B
:100C6000E885F985812F0995892BA1F3DACFFA015F
:100C7000AA27283051F1203181F1E8946F936E7FDB
:100C80006E5F7F4F8F4F9F4FAF4FB1E03ED0B4E0CC
:100C90003CD0670F781F891F9A1FA11D680F791F0D
:100CA0008A1F911DA11D6A0F711D811D911DA11D1E
:100CB00020D009F468943F912AE0269F112430192E
:100CC000305D3193DEF6CF010895462F4770405DC9
:100CD0004193B3E00FD0C9F7F6CF462F4F70405D78
:100CE0004A3318F0495D31FD4052419302D0A9F7D3
:100CF000EACFB4E0A6959795879577956795BA95CD
:100D0000C9F700976105710508959B01AC010A2E92
:100D100006945795479537952795BA95C9F7620F69
:100D2000731F841F951FA01D08952F923F924F920D
:100D30005F926F927F928F929F92AF92BF92CF926B
:100D4000DF92EF92FF920F931F93CF93DF93CDB774
:100D5000DEB7CA1BDB0B0FB6F894DEBF0FBECDBFEC
:100D600009942A88398848885F846E847D848C84BD
:100D70009B84AA84B984C884DF80EE80FD800C81C6
:100D80001B81AA81B981CE0FD11D0FB6F894DEBFA9
:0C0D90000FBECDBFED010895F894FFCF19
:100D9C000000000200000000F700000000000A0044
:100DAC00010025752E253031752C25752E253031F9
:100DBC00752C25752E253031750D0A0025752E25BF
:100DCC003031752025752E253031752025752E2551
:100DDC00303175001BC0506175736564001BC052C7
:0C0DEC006174653A20257520487A0000EB
:00000001FF
